{
  "contractName": "Vote_Token",
  "abi": [
    {
      "constant": true,
      "inputs": [],
      "name": "name",
      "outputs": [
        {
          "name": "",
          "type": "string"
        }
      ],
      "payable": false,
      "stateMutability": "view",
      "type": "function"
    },
    {
      "constant": true,
      "inputs": [],
      "name": "totalVotes",
      "outputs": [
        {
          "name": "",
          "type": "uint256"
        }
      ],
      "payable": false,
      "stateMutability": "view",
      "type": "function"
    },
    {
      "constant": true,
      "inputs": [],
      "name": "totalVotesCasted",
      "outputs": [
        {
          "name": "",
          "type": "uint256"
        }
      ],
      "payable": false,
      "stateMutability": "view",
      "type": "function"
    },
    {
      "constant": true,
      "inputs": [],
      "name": "symbol",
      "outputs": [
        {
          "name": "",
          "type": "string"
        }
      ],
      "payable": false,
      "stateMutability": "view",
      "type": "function"
    },
    {
      "constant": true,
      "inputs": [
        {
          "name": "",
          "type": "bytes32"
        }
      ],
      "name": "vote",
      "outputs": [
        {
          "name": "id",
          "type": "uint256"
        },
        {
          "name": "_spent",
          "type": "bool"
        },
        {
          "name": "_party",
          "type": "string"
        },
        {
          "name": "_constituency",
          "type": "string"
        },
        {
          "name": "_time",
          "type": "uint256"
        }
      ],
      "payable": false,
      "stateMutability": "view",
      "type": "function"
    },
    {
      "constant": true,
      "inputs": [],
      "name": "state",
      "outputs": [
        {
          "name": "",
          "type": "uint8"
        }
      ],
      "payable": false,
      "stateMutability": "view",
      "type": "function"
    },
    {
      "constant": true,
      "inputs": [],
      "name": "admin",
      "outputs": [
        {
          "name": "",
          "type": "address"
        }
      ],
      "payable": false,
      "stateMutability": "view",
      "type": "function"
    },
    {
      "inputs": [
        {
          "name": "_name",
          "type": "string"
        }
      ],
      "payable": false,
      "stateMutability": "nonpayable",
      "type": "constructor"
    },
    {
      "anonymous": false,
      "inputs": [
        {
          "indexed": false,
          "name": "voterid",
          "type": "bytes32"
        },
        {
          "indexed": false,
          "name": "party",
          "type": "string"
        },
        {
          "indexed": false,
          "name": "constituency",
          "type": "string"
        }
      ],
      "name": "VoteEvent",
      "type": "event"
    },
    {
      "anonymous": false,
      "inputs": [
        {
          "indexed": false,
          "name": "totalVotes",
          "type": "uint256"
        }
      ],
      "name": "VotingStartEvent",
      "type": "event"
    },
    {
      "anonymous": false,
      "inputs": [
        {
          "indexed": false,
          "name": "_constituency",
          "type": "string"
        },
        {
          "indexed": false,
          "name": "_party",
          "type": "string"
        }
      ],
      "name": "PartyRegistryEvent",
      "type": "event"
    },
    {
      "anonymous": false,
      "inputs": [
        {
          "indexed": false,
          "name": "totalVotesCasted",
          "type": "uint256"
        }
      ],
      "name": "VotingEndEvent",
      "type": "event"
    },
    {
      "anonymous": false,
      "inputs": [
        {
          "indexed": false,
          "name": "_name",
          "type": "string"
        }
      ],
      "name": "RegisteringStartEvent",
      "type": "event"
    },
    {
      "constant": false,
      "inputs": [
        {
          "name": "_constituency",
          "type": "string"
        },
        {
          "name": "_party",
          "type": "string"
        }
      ],
      "name": "registerParty",
      "outputs": [],
      "payable": false,
      "stateMutability": "nonpayable",
      "type": "function"
    },
    {
      "constant": false,
      "inputs": [],
      "name": "startVoting",
      "outputs": [],
      "payable": false,
      "stateMutability": "nonpayable",
      "type": "function"
    },
    {
      "constant": false,
      "inputs": [],
      "name": "endVoting",
      "outputs": [],
      "payable": false,
      "stateMutability": "nonpayable",
      "type": "function"
    },
    {
      "constant": false,
      "inputs": [
        {
          "name": "x",
          "type": "bytes"
        }
      ],
      "name": "register",
      "outputs": [
        {
          "name": "success",
          "type": "bool"
        }
      ],
      "payable": false,
      "stateMutability": "nonpayable",
      "type": "function"
    },
    {
      "constant": false,
      "inputs": [
        {
          "name": "_voter",
          "type": "bytes"
        },
        {
          "name": "_party",
          "type": "string"
        }
      ],
      "name": "spend",
      "outputs": [
        {
          "name": "success",
          "type": "bool"
        }
      ],
      "payable": false,
      "stateMutability": "nonpayable",
      "type": "function"
    },
    {
      "constant": false,
      "inputs": [],
      "name": "destroy",
      "outputs": [],
      "payable": false,
      "stateMutability": "nonpayable",
      "type": "function"
    }
  ],
  "bytecode": "0x60806040523480156200001157600080fd5b5060405162001c8438038062001c84833981018060405260208110156200003757600080fd5b8101908080516401000000008111156200005057600080fd5b828101905060208101848111156200006757600080fd5b81518560018202830111640100000000821117156200008557600080fd5b505092919050505033600760006101000a81548173ffffffffffffffffffffffffffffffffffffffff021916908373ffffffffffffffffffffffffffffffffffffffff1602179055508060029080519060200190620000e692919062000226565b506000600460006101000a81548160ff021916908360028111156200010757fe5b0217905550600080819055506040518060400160405280600481526020017f564f544500000000000000000000000000000000000000000000000000000000815250600390805190602001906200016092919062000226565b507f4e9d2d54f7edff7a322196f01e075d129f63f256ea9a892a2db2f06d59414df460026040518080602001828103825283818154600181600116156101000203166002900481526020019150805460018160011615610100020316600290048015620002115780601f10620001e55761010080835404028352916020019162000211565b820191906000526020600020905b815481529060010190602001808311620001f357829003601f168201915b50509250505060405180910390a150620002d5565b828054600181600116156101000203166002900490600052602060002090601f016020900481019282601f106200026957805160ff19168380011785556200029a565b828001600101855582156200029a579182015b82811115620002995782518255916020019190600101906200027c565b5b509050620002a99190620002ad565b5090565b620002d291905b80821115620002ce576000816000905550600101620002b4565b5090565b90565b61199f80620002e56000396000f3fe608060405234801561001057600080fd5b50600436106100cf5760003560e01c806382fbdc9c1161008c578063a69beaba11610066578063a69beaba146105b9578063c19d93fb146106e5578063c3403ddf14610711578063f851a4401461071b576100cf565b806382fbdc9c1461045957806383197ef01461052c57806395d89b4114610536576100cf565b806306fdde03146100d45780630d15fd77146101575780631ec6b60a146101755780632ba9d82a1461017f5780635aba6426146102e95780637c99279a1461043b575b600080fd5b6100dc610765565b6040518080602001828103825283818151815260200191508051906020019080838360005b8381101561011c578082015181840152602081019050610101565b50505050905090810190601f1680156101495780820380516001836020036101000a031916815260200191505b509250505060405180910390f35b61015f610803565b6040518082815260200191505060405180910390f35b61017d610809565b005b6102cf6004803603604081101561019557600080fd5b81019080803590602001906401000000008111156101b257600080fd5b8201836020820111156101c457600080fd5b803590602001918460018302840111640100000000831117156101e657600080fd5b91908080601f016020809104026020016040519081016040528093929190818152602001838380828437600081840152601f19601f8201169050808301925050505050505091929192908035906020019064010000000081111561024957600080fd5b82018360208201111561025b57600080fd5b8035906020019184600183028401116401000000008311171561027d57600080fd5b91908080601f016020809104026020016040519081016040528093929190818152602001838380828437600081840152601f19601f820116905080830192505050505050509192919290505050610933565b604051808215151515815260200191505060405180910390f35b610439600480360360408110156102ff57600080fd5b810190808035906020019064010000000081111561031c57600080fd5b82018360208201111561032e57600080fd5b8035906020019184600183028401116401000000008311171561035057600080fd5b91908080601f016020809104026020016040519081016040528093929190818152602001838380828437600081840152601f19601f820116905080830192505050505050509192919290803590602001906401000000008111156103b357600080fd5b8201836020820111156103c557600080fd5b803590602001918460018302840111640100000000831117156103e757600080fd5b91908080601f016020809104026020016040519081016040528093929190818152602001838380828437600081840152601f19601f820116905080830192505050505050509192919290505050610c96565b005b610443610fba565b6040518082815260200191505060405180910390f35b6105126004803603602081101561046f57600080fd5b810190808035906020019064010000000081111561048c57600080fd5b82018360208201111561049e57600080fd5b803590602001918460018302840111640100000000831117156104c057600080fd5b91908080601f016020809104026020016040519081016040528093929190818152602001838380828437600081840152601f19601f820116905080830192505050505050509192919290505050610fc0565b604051808215151515815260200191505060405180910390f35b6105346111ee565b005b61053e6112f6565b6040518080602001828103825283818151815260200191508051906020019080838360005b8381101561057e578082015181840152602081019050610563565b50505050905090810190601f1680156105ab5780820380516001836020036101000a031916815260200191505b509250505060405180910390f35b6105e5600480360360208110156105cf57600080fd5b8101908080359060200190929190505050611394565b60405180868152602001851515151581526020018060200180602001848152602001838103835286818151815260200191508051906020019080838360005b8381101561063f578082015181840152602081019050610624565b50505050905090810190601f16801561066c5780820380516001836020036101000a031916815260200191505b50838103825285818151815260200191508051906020019080838360005b838110156106a557808201518184015260208101905061068a565b50505050905090810190601f1680156106d25780820380516001836020036101000a031916815260200191505b5097505050505050505060405180910390f35b6106ed611507565b604051808260028111156106fd57fe5b60ff16815260200191505060405180910390f35b61071961151a565b005b61072361163c565b604051808273ffffffffffffffffffffffffffffffffffffffff1673ffffffffffffffffffffffffffffffffffffffff16815260200191505060405180910390f35b60028054600181600116156101000203166002900480601f0160208091040260200160405190810160405280929190818152602001828054600181600116156101000203166002900480156107fb5780601f106107d0576101008083540402835291602001916107fb565b820191906000526020600020905b8154815290600101906020018083116107de57829003601f168201915b505050505081565b60005481565b3373ffffffffffffffffffffffffffffffffffffffff16600760009054906101000a900473ffffffffffffffffffffffffffffffffffffffff1673ffffffffffffffffffffffffffffffffffffffff16146108cc576040517f08c379a00000000000000000000000000000000000000000000000000000000081526004018080602001828103825260168152602001807f4f6e6c79206f776e65722063616e20646f20746869730000000000000000000081525060200191505060405180910390fd5b6001600460006101000a81548160ff021916908360028111156108eb57fe5b021790555060006001819055507f18077c5a69d6099a24750a06200f090aaed34dcfbea9b0bc882fa9187a40a54d6000546040518082815260200191505060405180910390a1565b6000806002846040518082805190602001908083835b6020831061096c5780518252602082019150602081019050602083039250610949565b6001836020036101000a038019825116818451168082178552505050505050905001915050602060405180830381855afa1580156109ae573d6000803e3d6000fd5b5050506040513d60208110156109c357600080fd5b81019080805190602001909291905050509050600015156005600083815260200190815260200160002060010160009054906101000a900460ff16151514610a56576040517f08c379a00000000000000000000000000000000000000000000000000000000081526004018080602001828103825260268152602001806119116026913960400191505060405180910390fd5b60016005600083815260200190815260200160002060010160006101000a81548160ff02191690831515021790555060018054016001819055507f06cc8c128a4aaafae16f29bd640336110da2d98e8ead2a9180889ee2de445eec818460056000858152602001908152602001600020600301604051808481526020018060200180602001838103835285818151815260200191508051906020019080838360005b83811015610b13578082015181840152602081019050610af8565b50505050905090810190601f168015610b405780820380516001836020036101000a031916815260200191505b50838103825284818154600181600116156101000203166002900481526020019150805460018160011615610100020316600290048015610bc25780601f10610b9757610100808354040283529160200191610bc2565b820191906000526020600020905b815481529060010190602001808311610ba557829003601f168201915b50509550505050505060405180910390a1610c8b83600560008481526020019081526020016000206003018054600181600116156101000203166002900480601f016020809104026020016040519081016040528092919081815260200182805460018160011615610100020316600290048015610c815780601f10610c5657610100808354040283529160200191610c81565b820191906000526020600020905b815481529060010190602001808311610c6457829003601f168201915b5050505050611662565b600191505092915050565b3373ffffffffffffffffffffffffffffffffffffffff16600760009054906101000a900473ffffffffffffffffffffffffffffffffffffffff1673ffffffffffffffffffffffffffffffffffffffff1614610d59576040517f08c379a00000000000000000000000000000000000000000000000000000000081526004018080602001828103825260168152602001807f4f6e6c79206f776e65722063616e20646f20746869730000000000000000000081525060200191505060405180910390fd5b60006002811115610d6657fe5b600460009054906101000a900460ff166002811115610d8157fe5b14610dd7576040517f08c379a000000000000000000000000000000000000000000000000000000000815260040180806020018281038252603d815260200180611937603d913960400191505060405180910390fd5b60006006836040518082805190602001908083835b60208310610e0f5780518252602082019150602081019050602083039250610dec565b6001836020036101000a0380198251168184511680821785525050505050509050019150509081526020016040518091039020826040518082805190602001908083835b60208310610e765780518252602082019150602081019050602083039250610e53565b6001836020036101000a0380198251168184511680821785525050505050509050019150509081526020016040518091039020819055507f4594c63f154e8d86fdf16b444fde2711bea38edf04d72f763cf6d456a5a4737d8282604051808060200180602001838103835285818151815260200191508051906020019080838360005b83811015610f14578082015181840152602081019050610ef9565b50505050905090810190601f168015610f415780820380516001836020036101000a031916815260200191505b50838103825284818151815260200191508051906020019080838360005b83811015610f7a578082015181840152602081019050610f5f565b50505050905090810190601f168015610fa75780820380516001836020036101000a031916815260200191505b5094505050505060405180910390a15050565b60015481565b6000806002811115610fce57fe5b600460009054906101000a900460ff166002811115610fe957fe5b1461105c576040517f08c379a00000000000000000000000000000000000000000000000000000000081526004018080602001828103825260148152602001807f526567697374726174696f6e20636c6f7365642000000000000000000000000081525060200191505060405180910390fd5b60006002836040518082805190602001908083835b602083106110945780518252602082019150602081019050602083039250611071565b6001836020036101000a038019825116818451168082178552505050505050905001915050602060405180830381855afa1580156110d6573d6000803e3d6000fd5b5050506040513d60208110156110eb57600080fd5b8101908080519060200190929190505050905061110661180e565b6040518060a00160405280600054815260200160001515815260200160405180602001604052806000815250815260200160405180602001604052806000815250815260200142815250905080600560008481526020019081526020016000206000820151816000015560208201518160010160006101000a81548160ff02191690831515021790555060408201518160020190805190602001906111ac92919061183f565b5060608201518160030190805190602001906111c992919061183f565b5060808201518160040155905050600160005401600081905550600192505050919050565b3373ffffffffffffffffffffffffffffffffffffffff16600760009054906101000a900473ffffffffffffffffffffffffffffffffffffffff1673ffffffffffffffffffffffffffffffffffffffff16146112b1576040517f08c379a00000000000000000000000000000000000000000000000000000000081526004018080602001828103825260168152602001807f4f6e6c79206f776e65722063616e20646f20746869730000000000000000000081525060200191505060405180910390fd5b3373ffffffffffffffffffffffffffffffffffffffff16ff5b8154815290600101906020018083116112ca57829003601f1682019150509250505060405180910390a1565b60038054600181600116156101000203166002900480601f01602080910402602001604051908101604052809291908181526020018280546001816001161561010002031660029004801561138c5780601f106113615761010080835404028352916020019161138c565b820191906000526020600020905b81548152906001019060200180831161136f57829003601f168201915b505050505081565b60056020528060005260406000206000915090508060000154908060010160009054906101000a900460ff1690806002018054600181600116156101000203166002900480601f0160208091040260200160405190810160405280929190818152602001828054600181600116156101000203166002900480156114595780601f1061142e57610100808354040283529160200191611459565b820191906000526020600020905b81548152906001019060200180831161143c57829003601f168201915b505050505090806003018054600181600116156101000203166002900480601f0160208091040260200160405190810160405280929190818152602001828054600181600116156101000203166002900480156114f75780601f106114cc576101008083540402835291602001916114f7565b820191906000526020600020905b8154815290600101906020018083116114da57829003601f168201915b5050505050908060040154905085565b600460009054906101000a900460ff1681565b3373ffffffffffffffffffffffffffffffffffffffff16600760009054906101000a900473ffffffffffffffffffffffffffffffffffffffff1673ffffffffffffffffffffffffffffffffffffffff16146115dd576040517f08c379a00000000000000000000000000000000000000000000000000000000081526004018080602001828103825260168152602001807f4f6e6c79206f776e65722063616e20646f20746869730000000000000000000081525060200191505060405180910390fd5b6002600460006101000a81548160ff021916908360028111156115fc57fe5b02179055507fab9c095971baf1dd1915aaeb21473fc1fa17ef8c3285543e11b04c67d752bb6d6001546040518082815260200191505060405180910390a1565b600760009054906101000a900473ffffffffffffffffffffffffffffffffffffffff1681565b60016006826040518082805190602001908083835b6020831061169a5780518252602082019150602081019050602083039250611677565b6001836020036101000a0380198251168184511680821785525050505050509050019150509081526020016040518091039020836040518082805190602001908083835b6020831061170157805182526020820191506020810190506020830392506116de565b6001836020036101000a038019825116818451168082178552505050505050905001915050908152602001604051809103902054016006826040518082805190602001908083835b6020831061176c5780518252602082019150602081019050602083039250611749565b6001836020036101000a0380198251168184511680821785525050505050509050019150509081526020016040518091039020836040518082805190602001908083835b602083106117d357805182526020820191506020810190506020830392506117b0565b6001836020036101000a0380198251168184511680821785525050505050509050019150509081526020016040518091039020819055505050565b6040518060a00160405280600081526020016000151581526020016060815260200160608152602001600081525090565b828054600181600116156101000203166002900490600052602060002090601f016020900481019282601f1061188057805160ff19168380011785556118ae565b828001600101855582156118ae579182015b828111156118ad578251825591602001919060010190611892565b5b5090506118bb91906118eb565b5090565b828111156118da5782518255916020019190600101906118bf565b5090506118e791906118eb565b5090565b61190d91905b808211156119095760008160009055506001016118f1565b5090565b9056fe5468697320766f74657220746f6b656e2068617320616c7265616479206265656e2075736564526567697374726174696f6e206f662070617274696573206973206f6e6c7920616c6c6f77656420696e20726567697374726174696f6e207068617365a165627a7a72305820f24f1f9aa6d56ad22cfe17cfb159a5e912cbf8c2239d71667aaa6e66946cce450029",
  "source": "pragma solidity ^0.5.1;\n\ncontract Vote_Token\n{\n\n    // primary variable declarations\n\n    uint256 public totalVotes;  //total vote tokens distributed\n\n    uint256 public totalVotesCasted;    // to store the total number of votes casted\n\n    string public name;// to store the name of the vote token distributed\n\n    string public symbol;// to store the name of the vote token distributed\n\n\n    //structure of a vote token\n\n    struct Vote {\n        uint256 id;\n        bool _spent;\n        string _party;\n        string _constituency;\n        uint256 _time;\n    }\n\n\n    //modifier for making function usable by only admin\n\n    modifier onlyOwner(){\n        require(admin == msg.sender,\"Only owner can do this\");\n        _;\n    }\n\n\n    //Event emitted when a vote token is spent\n\n    event VoteEvent (\n        bytes32 voterid,\n        string party,\n        string constituency\n    );\n\n\n    //Event emitted when the voting starts\n\n    event VotingStartEvent(\n        uint256 totalVotes\n    );\n\n\n    //Event emitted when a new party is registered\n\n    event PartyRegistryEvent(\n            string _constituency,\n            string _party\n        );\n\n\n    //Event emitted when the voting process ends\n\n    event VotingEndEvent(\n            uint256 totalVotesCasted\n        );\n\n    //Event emitted when the registering of users start\n\n    event RegisteringStartEvent(\n            string _name\n    );\n\n\n\n    //enum that contains the state of the voting process\n\n    enum State {Registering, Voting, End }\n\n    State public state;\n\n\n    //mapping to map voter id to vote\n\n    mapping (bytes32 => Vote) public vote;\n\n\n    //mapping to map constituency and party to votes\n\n    mapping (string => mapping(string => uint256)) vote_count;\n\n\n    // to store address of the admin who deployed the constract\n\n    address public admin;\n\n\n    // to initiliaze the value upon contract deployment\n\n    constructor(string memory _name) public{\n        admin = msg.sender;\n        name = _name;\n        state = State.Registering;\n        totalVotes = 0;\n        symbol = \"VOTE\";\n\n        emit RegisteringStartEvent(\n            name\n        );\n    }\n\n\n    // function to register a party from a constituency\n\n    function registerParty(string memory _constituency, string memory _party)\n    public\n    onlyOwner {\n        require(state == State.Registering,'Registration of parties is only allowed in registration phase');\n        vote_count[_constituency][_party] = 0;\n\n        emit PartyRegistryEvent(\n            _constituency,\n            _party\n        );\n    }\n\n\n    // function called by admin to upgrade the state to voting\n\n    function startVoting()\n    public\n    onlyOwner {\n        state = State.Voting;\n        totalVotesCasted = 0;\n        emit VotingStartEvent(totalVotes);\n    }\n\n\n    //function called by admin to upgrade the end the voting process\n\n    function endVoting()\n    public\n    onlyOwner{\n        state = State.End;\n        emit VotingEndEvent(\n            totalVotesCasted\n        );\n    }\n\n\n    //function called by any account to register a user for vote\n\n    function register(bytes memory x)\n    public\n    returns (bool success)\n    {\n\n        require(state == State.Registering, 'Registration closed ');\n\n        bytes32 _voterid = sha256(x);\n\n        Vote memory vote_voter = Vote(totalVotes,false,\"\",\"\",block.timestamp);\n\n        vote[_voterid] = vote_voter;\n\n        totalVotes = totalVotes + 1;\n\n        return true;\n    }\n\n\n    //internal function to increment the count of votes a party get in a constituency\n\n    function voteincrement(string memory _party,string memory _constituency)\n    internal\n    {\n        vote_count[_constituency][_party] = vote_count[_constituency][_party] + 1;\n    }\n\n\n    //function to spend the vote tokens\n\n    function spend(bytes memory _voter,string memory _party)\n    public\n    returns(bool success)\n    {\n        bytes32 _voterid = sha256(_voter);\n\n        require(vote[_voterid]._spent == false,'This voter token has already been used');\n\n        vote[_voterid]._spent = true;\n\n        totalVotesCasted = totalVotesCasted + 1;\n\n        emit VoteEvent(_voterid,_party,vote[_voterid]._constituency);\n\n        voteincrement(_party,vote[_voterid]._constituency);\n\n        return true;\n\n    }\n\n    //function to revert all the changes\n\n    function destroy()\n    public\n    onlyOwner\n    {\n        selfdestruct(msg.sender);\n\n        admin = msg.sender;\n        name = \"Vote Token\";\n        state = State.Registering;\n        totalVotes = 0;\n        symbol = \"VOTE\";\n\n        emit RegisteringStartEvent(\n            name\n        );\n    }\n}",
  "sourcePath": "/home/sauravskv/Desktop/codefundo-blockchain/contracts/Vote_Token.sol",
  "compiler": {
    "name": "solc",
    "version": "0.5.8+commit.23d335f2.Emscripten.clang"
  },
  "schemaVersion": "3.0.11",
  "updatedAt": "2019-08-10T07:39:06.711Z",
  "devdoc": {
    "methods": {}
  },
  "userdoc": {
    "methods": {}
  }
}