{
  "contractName": "Vote_Token",
  "abi": [
    {
      "constant": true,
      "inputs": [],
      "name": "name",
      "outputs": [
        {
          "name": "",
          "type": "string"
        }
      ],
      "payable": false,
      "stateMutability": "view",
      "type": "function"
    },
    {
      "constant": true,
      "inputs": [],
      "name": "totalVotes",
      "outputs": [
        {
          "name": "",
          "type": "uint256"
        }
      ],
      "payable": false,
      "stateMutability": "view",
      "type": "function"
    },
    {
      "constant": true,
      "inputs": [],
      "name": "totalVotesCasted",
      "outputs": [
        {
          "name": "",
          "type": "uint256"
        }
      ],
      "payable": false,
      "stateMutability": "view",
      "type": "function"
    },
    {
      "constant": true,
      "inputs": [
        {
          "name": "",
          "type": "bytes32"
        }
      ],
      "name": "vote",
      "outputs": [
        {
          "name": "id",
          "type": "uint256"
        },
        {
          "name": "spent",
          "type": "bool"
        },
        {
          "name": "_party",
          "type": "string"
        },
        {
          "name": "_constituency",
          "type": "string"
        },
        {
          "name": "_time",
          "type": "uint256"
        }
      ],
      "payable": false,
      "stateMutability": "view",
      "type": "function"
    },
    {
      "constant": true,
      "inputs": [],
      "name": "state",
      "outputs": [
        {
          "name": "",
          "type": "uint8"
        }
      ],
      "payable": false,
      "stateMutability": "view",
      "type": "function"
    },
    {
      "constant": true,
      "inputs": [],
      "name": "admin",
      "outputs": [
        {
          "name": "",
          "type": "address"
        }
      ],
      "payable": false,
      "stateMutability": "view",
      "type": "function"
    },
    {
      "inputs": [],
      "payable": false,
      "stateMutability": "nonpayable",
      "type": "constructor"
    },
    {
      "anonymous": false,
      "inputs": [
        {
          "indexed": false,
          "name": "voterid",
          "type": "bytes32"
        },
        {
          "indexed": false,
          "name": "party",
          "type": "string"
        },
        {
          "indexed": false,
          "name": "constituency",
          "type": "string"
        }
      ],
      "name": "VoteEvent",
      "type": "event"
    },
    {
      "anonymous": false,
      "inputs": [
        {
          "indexed": false,
          "name": "totalVotes",
          "type": "uint256"
        }
      ],
      "name": "VotingStartEvent",
      "type": "event"
    },
    {
      "anonymous": false,
      "inputs": [
        {
          "indexed": false,
          "name": "_constituency",
          "type": "string"
        },
        {
          "indexed": false,
          "name": "_party",
          "type": "string"
        }
      ],
      "name": "PartyRegistryEvent",
      "type": "event"
    },
    {
      "anonymous": false,
      "inputs": [
        {
          "indexed": false,
          "name": "totalVotesCasted",
          "type": "uint256"
        }
      ],
      "name": "VotingEndEvent",
      "type": "event"
    },
    {
      "constant": false,
      "inputs": [
        {
          "name": "_constituency",
          "type": "string"
        },
        {
          "name": "_party",
          "type": "string"
        }
      ],
      "name": "registerParty",
      "outputs": [],
      "payable": false,
      "stateMutability": "nonpayable",
      "type": "function"
    },
    {
      "constant": false,
      "inputs": [],
      "name": "startVoting",
      "outputs": [],
      "payable": false,
      "stateMutability": "nonpayable",
      "type": "function"
    },
    {
      "constant": false,
      "inputs": [],
      "name": "endVoting",
      "outputs": [],
      "payable": false,
      "stateMutability": "nonpayable",
      "type": "function"
    },
    {
      "constant": false,
      "inputs": [
        {
          "name": "x",
          "type": "bytes"
        }
      ],
      "name": "register",
      "outputs": [
        {
          "name": "success",
          "type": "bool"
        }
      ],
      "payable": false,
      "stateMutability": "nonpayable",
      "type": "function"
    },
    {
      "constant": false,
      "inputs": [
        {
          "name": "_voter",
          "type": "bytes"
        },
        {
          "name": "_party",
          "type": "string"
        }
      ],
      "name": "spend",
      "outputs": [
        {
          "name": "success",
          "type": "bool"
        }
      ],
      "payable": false,
      "stateMutability": "nonpayable",
      "type": "function"
    }
  ],
  "bytecode": "0x60806040523480156200001157600080fd5b5033600660006101000a81548173ffffffffffffffffffffffffffffffffffffffff021916908373ffffffffffffffffffffffffffffffffffffffff1602179055506040518060400160405280600a81526020017f566f746520546f6b656e0000000000000000000000000000000000000000000081525060029080519060200190620000a0929190620000d3565b506000600360006101000a81548160ff02191690836002811115620000c157fe5b02179055506000808190555062000182565b828054600181600116156101000203166002900490600052602060002090601f016020900481019282601f106200011657805160ff191683800117855562000147565b8280016001018555821562000147579182015b828111156200014657825182559160200191906001019062000129565b5b5090506200015691906200015a565b5090565b6200017f91905b808211156200017b57600081600090555060010162000161565b5090565b90565b61165f80620001926000396000f3fe608060405234801561001057600080fd5b50600436106100a95760003560e01c80637c99279a116100715780637c99279a1461041557806382fbdc9c14610433578063a69beaba14610506578063c19d93fb14610632578063c3403ddf1461065e578063f851a44014610668576100a9565b806306fdde03146100ae5780630d15fd77146101315780631ec6b60a1461014f5780632ba9d82a146101595780635aba6426146102c3575b600080fd5b6100b66106b2565b6040518080602001828103825283818151815260200191508051906020019080838360005b838110156100f65780820151818401526020810190506100db565b50505050905090810190601f1680156101235780820380516001836020036101000a031916815260200191505b509250505060405180910390f35b610139610750565b6040518082815260200191505060405180910390f35b610157610756565b005b6102a96004803603604081101561016f57600080fd5b810190808035906020019064010000000081111561018c57600080fd5b82018360208201111561019e57600080fd5b803590602001918460018302840111640100000000831117156101c057600080fd5b91908080601f016020809104026020016040519081016040528093929190818152602001838380828437600081840152601f19601f8201169050808301925050505050505091929192908035906020019064010000000081111561022357600080fd5b82018360208201111561023557600080fd5b8035906020019184600183028401116401000000008311171561025757600080fd5b91908080601f016020809104026020016040519081016040528093929190818152602001838380828437600081840152601f19601f820116905080830192505050505050509192919290505050610880565b604051808215151515815260200191505060405180910390f35b610413600480360360408110156102d957600080fd5b81019080803590602001906401000000008111156102f657600080fd5b82018360208201111561030857600080fd5b8035906020019184600183028401116401000000008311171561032a57600080fd5b91908080601f016020809104026020016040519081016040528093929190818152602001838380828437600081840152601f19601f8201169050808301925050505050505091929192908035906020019064010000000081111561038d57600080fd5b82018360208201111561039f57600080fd5b803590602001918460018302840111640100000000831117156103c157600080fd5b91908080601f016020809104026020016040519081016040528093929190818152602001838380828437600081840152601f19601f820116905080830192505050505050509192919290505050610be3565b005b61041d610e89565b6040518082815260200191505060405180910390f35b6104ec6004803603602081101561044957600080fd5b810190808035906020019064010000000081111561046657600080fd5b82018360208201111561047857600080fd5b8035906020019184600183028401116401000000008311171561049a57600080fd5b91908080601f016020809104026020016040519081016040528093929190818152602001838380828437600081840152601f19601f820116905080830192505050505050509192919290505050610e8f565b604051808215151515815260200191505060405180910390f35b6105326004803603602081101561051c57600080fd5b81019080803590602001909291905050506110bd565b60405180868152602001851515151581526020018060200180602001848152602001838103835286818151815260200191508051906020019080838360005b8381101561058c578082015181840152602081019050610571565b50505050905090810190601f1680156105b95780820380516001836020036101000a031916815260200191505b50838103825285818151815260200191508051906020019080838360005b838110156105f25780820151818401526020810190506105d7565b50505050905090810190601f16801561061f5780820380516001836020036101000a031916815260200191505b5097505050505050505060405180910390f35b61063a611230565b6040518082600281111561064a57fe5b60ff16815260200191505060405180910390f35b610666611243565b005b610670611365565b604051808273ffffffffffffffffffffffffffffffffffffffff1673ffffffffffffffffffffffffffffffffffffffff16815260200191505060405180910390f35b60028054600181600116156101000203166002900480601f0160208091040260200160405190810160405280929190818152602001828054600181600116156101000203166002900480156107485780601f1061071d57610100808354040283529160200191610748565b820191906000526020600020905b81548152906001019060200180831161072b57829003601f168201915b505050505081565b60005481565b3373ffffffffffffffffffffffffffffffffffffffff16600660009054906101000a900473ffffffffffffffffffffffffffffffffffffffff1673ffffffffffffffffffffffffffffffffffffffff1614610819576040517f08c379a00000000000000000000000000000000000000000000000000000000081526004018080602001828103825260168152602001807f4f6e6c79206f776e65722063616e20646f20746869730000000000000000000081525060200191505060405180910390fd5b6001600360006101000a81548160ff0219169083600281111561083857fe5b021790555060006001819055507f18077c5a69d6099a24750a06200f090aaed34dcfbea9b0bc882fa9187a40a54d6000546040518082815260200191505060405180910390a1565b6000806002846040518082805190602001908083835b602083106108b95780518252602082019150602081019050602083039250610896565b6001836020036101000a038019825116818451168082178552505050505050905001915050602060405180830381855afa1580156108fb573d6000803e3d6000fd5b5050506040513d602081101561091057600080fd5b81019080805190602001909291905050509050600015156004600083815260200190815260200160002060010160009054906101000a900460ff161515146109a3576040517f08c379a000000000000000000000000000000000000000000000000000000000815260040180806020018281038252602681526020018061160e6026913960400191505060405180910390fd5b60016004600083815260200190815260200160002060010160006101000a81548160ff02191690831515021790555060018054016001819055507f06cc8c128a4aaafae16f29bd640336110da2d98e8ead2a9180889ee2de445eec818460046000858152602001908152602001600020600301604051808481526020018060200180602001838103835285818151815260200191508051906020019080838360005b83811015610a60578082015181840152602081019050610a45565b50505050905090810190601f168015610a8d5780820380516001836020036101000a031916815260200191505b50838103825284818154600181600116156101000203166002900481526020019150805460018160011615610100020316600290048015610b0f5780601f10610ae457610100808354040283529160200191610b0f565b820191906000526020600020905b815481529060010190602001808311610af257829003601f168201915b50509550505050505060405180910390a1610bd883600460008481526020019081526020016000206003018054600181600116156101000203166002900480601f016020809104026020016040519081016040528092919081815260200182805460018160011615610100020316600290048015610bce5780601f10610ba357610100808354040283529160200191610bce565b820191906000526020600020905b815481529060010190602001808311610bb157829003601f168201915b505050505061138b565b600191505092915050565b3373ffffffffffffffffffffffffffffffffffffffff16600660009054906101000a900473ffffffffffffffffffffffffffffffffffffffff1673ffffffffffffffffffffffffffffffffffffffff1614610ca6576040517f08c379a00000000000000000000000000000000000000000000000000000000081526004018080602001828103825260168152602001807f4f6e6c79206f776e65722063616e20646f20746869730000000000000000000081525060200191505060405180910390fd5b60006005836040518082805190602001908083835b60208310610cde5780518252602082019150602081019050602083039250610cbb565b6001836020036101000a0380198251168184511680821785525050505050509050019150509081526020016040518091039020826040518082805190602001908083835b60208310610d455780518252602082019150602081019050602083039250610d22565b6001836020036101000a0380198251168184511680821785525050505050509050019150509081526020016040518091039020819055507f4594c63f154e8d86fdf16b444fde2711bea38edf04d72f763cf6d456a5a4737d8282604051808060200180602001838103835285818151815260200191508051906020019080838360005b83811015610de3578082015181840152602081019050610dc8565b50505050905090810190601f168015610e105780820380516001836020036101000a031916815260200191505b50838103825284818151815260200191508051906020019080838360005b83811015610e49578082015181840152602081019050610e2e565b50505050905090810190601f168015610e765780820380516001836020036101000a031916815260200191505b5094505050505060405180910390a15050565b60015481565b6000806002811115610e9d57fe5b600360009054906101000a900460ff166002811115610eb857fe5b14610f2b576040517f08c379a00000000000000000000000000000000000000000000000000000000081526004018080602001828103825260148152602001807f526567697374726174696f6e20636c6f7365642000000000000000000000000081525060200191505060405180910390fd5b60006002836040518082805190602001908083835b60208310610f635780518252602082019150602081019050602083039250610f40565b6001836020036101000a038019825116818451168082178552505050505050905001915050602060405180830381855afa158015610fa5573d6000803e3d6000fd5b5050506040513d6020811015610fba57600080fd5b81019080805190602001909291905050509050610fd5611537565b6040518060a00160405280600054815260200160001515815260200160405180602001604052806000815250815260200160405180602001604052806000815250815260200142815250905080600460008481526020019081526020016000206000820151816000015560208201518160010160006101000a81548160ff021916908315150217905550604082015181600201908051906020019061107b929190611568565b506060820151816003019080519060200190611098929190611568565b5060808201518160040155905050600160005401600081905550600192505050919050565b60046020528060005260406000206000915090508060000154908060010160009054906101000a900460ff1690806002018054600181600116156101000203166002900480601f0160208091040260200160405190810160405280929190818152602001828054600181600116156101000203166002900480156111825780601f1061115757610100808354040283529160200191611182565b820191906000526020600020905b81548152906001019060200180831161116557829003601f168201915b505050505090806003018054600181600116156101000203166002900480601f0160208091040260200160405190810160405280929190818152602001828054600181600116156101000203166002900480156112205780601f106111f557610100808354040283529160200191611220565b820191906000526020600020905b81548152906001019060200180831161120357829003601f168201915b5050505050908060040154905085565b600360009054906101000a900460ff1681565b3373ffffffffffffffffffffffffffffffffffffffff16600660009054906101000a900473ffffffffffffffffffffffffffffffffffffffff1673ffffffffffffffffffffffffffffffffffffffff1614611306576040517f08c379a00000000000000000000000000000000000000000000000000000000081526004018080602001828103825260168152602001807f4f6e6c79206f776e65722063616e20646f20746869730000000000000000000081525060200191505060405180910390fd5b6002600360006101000a81548160ff0219169083600281111561132557fe5b02179055507fab9c095971baf1dd1915aaeb21473fc1fa17ef8c3285543e11b04c67d752bb6d6001546040518082815260200191505060405180910390a1565b600660009054906101000a900473ffffffffffffffffffffffffffffffffffffffff1681565b60016005826040518082805190602001908083835b602083106113c357805182526020820191506020810190506020830392506113a0565b6001836020036101000a0380198251168184511680821785525050505050509050019150509081526020016040518091039020836040518082805190602001908083835b6020831061142a5780518252602082019150602081019050602083039250611407565b6001836020036101000a038019825116818451168082178552505050505050905001915050908152602001604051809103902054016005826040518082805190602001908083835b602083106114955780518252602082019150602081019050602083039250611472565b6001836020036101000a0380198251168184511680821785525050505050509050019150509081526020016040518091039020836040518082805190602001908083835b602083106114fc57805182526020820191506020810190506020830392506114d9565b6001836020036101000a0380198251168184511680821785525050505050509050019150509081526020016040518091039020819055505050565b6040518060a00160405280600081526020016000151581526020016060815260200160608152602001600081525090565b828054600181600116156101000203166002900490600052602060002090601f016020900481019282601f106115a957805160ff19168380011785556115d7565b828001600101855582156115d7579182015b828111156115d65782518255916020019190600101906115bb565b5b5090506115e491906115e8565b5090565b61160a91905b808211156116065760008160009055506001016115ee565b5090565b9056fe5468697320766f74657220746f6b656e2068617320616c7265616479206265656e2075736564a165627a7a7230582099a24d422280e7f6c8da1043805f7a070ded60f932782b5d4fa3f3b4e91237160029",
  "source": "pragma solidity ^0.5.1;\n\ncontract Vote_Token\n{\n    uint256 public totalVotes; //total vote tokens distributed\n\n    uint256 public totalVotesCasted;\n\n    // to store the name of the vote token distributed\n\n    string public name;\n\n\n    //structure of a vote token\n\n    struct Vote {\n        uint256 id;\n        bool spent;\n        string _party;\n        string _constituency;\n        uint256 _time;\n    }\n\n    //modifier for making function usable by only admin\n\n    modifier onlyOwner(){\n        require(admin == msg.sender,\"Only owner can do this\");\n        _;\n    }\n\n    //Event emitted when a vote token is spent\n\n    event VoteEvent (\n        bytes32 voterid,\n        string party,\n        string constituency\n    );\n\n    //Event emitted when the voting starts\n\n    event VotingStartEvent(\n        uint256 totalVotes\n    );\n\n    //Event emitted when a new party is registered\n\n    event PartyRegistryEvent(\n            string _constituency,\n            string _party\n        );\n\n    event VotingEndEvent(\n            uint256 totalVotesCasted\n        );\n\n    //enum that contains the state of the voting process\n\n    enum State {Registering, Voting, End }\n\n    State public state;\n\n    //mapping to map voter id to vote\n\n    mapping (bytes32 => Vote) public vote;\n\n    //mapping to map constituency and party to votes\n\n    mapping (string => mapping(string => uint256)) vote_count;\n\n    // to store address of the admin who deployed the constract\n\n    address public admin;\n\n    // to initiliaze the value upon contract deployment\n\n    constructor() public{\n        admin = msg.sender;\n        name = \"Vote Token\";\n        state = State.Registering;\n        totalVotes = 0;\n    }\n\n    // function to register a party from a constituency\n\n    function registerParty(string memory _constituency, string memory _party)\n    public\n    onlyOwner {\n        vote_count[_constituency][_party] = 0;\n\n        emit PartyRegistryEvent(\n            _constituency,\n            _party\n        );\n    }\n\n    // function called by admin to upgrade the state to voting\n\n    function startVoting()\n    public\n    onlyOwner {\n        state = State.Voting;\n        totalVotesCasted = 0;\n        emit VotingStartEvent(totalVotes);\n    }\n\n    //function called by admin to upgrade the end the voting process\n    function endVoting()\n    public\n    onlyOwner{\n        state = State.End;\n        emit VotingEndEvent(\n            totalVotesCasted\n        );\n    }\n\n    //function called by any account to register a user for vote\n\n    function register(bytes memory x)\n    public\n    returns (bool success)\n    {\n\n        require(state == State.Registering, 'Registration closed ');\n\n        bytes32 _voterid = sha256(x);\n\n        Vote memory vote_voter = Vote(totalVotes,false,\"\",\"\",block.timestamp);\n\n        vote[_voterid] = vote_voter;\n\n        totalVotes = totalVotes + 1;\n\n        return true;\n    }\n\n    function voteincrement(string memory _party,string memory _constituency)\n    internal\n    {\n        vote_count[_constituency][_party] = vote_count[_constituency][_party] + 1;\n    }\n\n    function spend(bytes memory _voter,string memory _party)\n    public\n    returns(bool success)\n    {\n        bytes32 _voterid = sha256(_voter);\n\n        require(vote[_voterid].spent == false,'This voter token has already been used');\n\n        vote[_voterid].spent = true;\n\n        totalVotesCasted = totalVotesCasted + 1;\n\n        emit VoteEvent(_voterid,_party,vote[_voterid]._constituency);\n\n        voteincrement(_party,vote[_voterid]._constituency);\n\n        return true;\n    }\n}",
  "sourcePath": "/home/sauravskv/Desktop/codefundo-blockchain/contracts/Vote_Token.sol",
  "compiler": {
    "name": "solc",
    "version": "0.5.8+commit.23d335f2.Emscripten.clang"
  },
  "schemaVersion": "3.0.11",
  "updatedAt": "2019-08-08T20:04:23.405Z",
  "devdoc": {
    "methods": {}
  },
  "userdoc": {
    "methods": {}
  }
}